{
  "_format": "hh-sol-artifact-1",
  "contractName": "Domains",
  "sourceName": "contracts/BNS.sol",
  "abi": [
    {
      "inputs": [
        {
          "internalType": "string",
          "name": "_tld",
          "type": "string"
        }
      ],
      "stateMutability": "payable",
      "type": "constructor"
    },
    {
      "inputs": [],
      "name": "AlreadyRegistered",
      "type": "error"
    },
    {
      "inputs": [],
      "name": "Unauthorized",
      "type": "error"
    },
    {
      "anonymous": false,
      "inputs": [
        {
          "indexed": true,
          "internalType": "address",
          "name": "owner",
          "type": "address"
        },
        {
          "indexed": true,
          "internalType": "address",
          "name": "approved",
          "type": "address"
        },
        {
          "indexed": true,
          "internalType": "uint256",
          "name": "tokenId",
          "type": "uint256"
        }
      ],
      "name": "Approval",
      "type": "event"
    },
    {
      "anonymous": false,
      "inputs": [
        {
          "indexed": true,
          "internalType": "address",
          "name": "owner",
          "type": "address"
        },
        {
          "indexed": true,
          "internalType": "address",
          "name": "operator",
          "type": "address"
        },
        {
          "indexed": false,
          "internalType": "bool",
          "name": "approved",
          "type": "bool"
        }
      ],
      "name": "ApprovalForAll",
      "type": "event"
    },
    {
      "anonymous": false,
      "inputs": [
        {
          "indexed": true,
          "internalType": "address",
          "name": "previousOwner",
          "type": "address"
        },
        {
          "indexed": true,
          "internalType": "address",
          "name": "newOwner",
          "type": "address"
        }
      ],
      "name": "OwnershipTransferred",
      "type": "event"
    },
    {
      "anonymous": false,
      "inputs": [
        {
          "indexed": true,
          "internalType": "address",
          "name": "from",
          "type": "address"
        },
        {
          "indexed": true,
          "internalType": "address",
          "name": "to",
          "type": "address"
        },
        {
          "indexed": true,
          "internalType": "uint256",
          "name": "tokenId",
          "type": "uint256"
        }
      ],
      "name": "Transfer",
      "type": "event"
    },
    {
      "inputs": [
        {
          "internalType": "address",
          "name": "to",
          "type": "address"
        },
        {
          "internalType": "uint256",
          "name": "tokenId",
          "type": "uint256"
        }
      ],
      "name": "approve",
      "outputs": [],
      "stateMutability": "nonpayable",
      "type": "function"
    },
    {
      "inputs": [
        {
          "internalType": "address",
          "name": "owner",
          "type": "address"
        }
      ],
      "name": "balanceOf",
      "outputs": [
        {
          "internalType": "uint256",
          "name": "",
          "type": "uint256"
        }
      ],
      "stateMutability": "view",
      "type": "function"
    },
    {
      "inputs": [
        {
          "internalType": "string",
          "name": "",
          "type": "string"
        }
      ],
      "name": "domains",
      "outputs": [
        {
          "internalType": "address",
          "name": "",
          "type": "address"
        }
      ],
      "stateMutability": "view",
      "type": "function"
    },
    {
      "inputs": [
        {
          "internalType": "string",
          "name": "name",
          "type": "string"
        }
      ],
      "name": "getAddress",
      "outputs": [
        {
          "internalType": "address",
          "name": "",
          "type": "address"
        }
      ],
      "stateMutability": "view",
      "type": "function"
    },
    {
      "inputs": [],
      "name": "getAllNames",
      "outputs": [
        {
          "internalType": "string[]",
          "name": "",
          "type": "string[]"
        }
      ],
      "stateMutability": "view",
      "type": "function"
    },
    {
      "inputs": [
        {
          "internalType": "uint256",
          "name": "tokenId",
          "type": "uint256"
        }
      ],
      "name": "getApproved",
      "outputs": [
        {
          "internalType": "address",
          "name": "",
          "type": "address"
        }
      ],
      "stateMutability": "view",
      "type": "function"
    },
    {
      "inputs": [
        {
          "internalType": "string",
          "name": "name",
          "type": "string"
        }
      ],
      "name": "getRecord",
      "outputs": [
        {
          "internalType": "string",
          "name": "",
          "type": "string"
        }
      ],
      "stateMutability": "view",
      "type": "function"
    },
    {
      "inputs": [
        {
          "internalType": "address",
          "name": "owner",
          "type": "address"
        },
        {
          "internalType": "address",
          "name": "operator",
          "type": "address"
        }
      ],
      "name": "isApprovedForAll",
      "outputs": [
        {
          "internalType": "bool",
          "name": "",
          "type": "bool"
        }
      ],
      "stateMutability": "view",
      "type": "function"
    },
    {
      "inputs": [],
      "name": "name",
      "outputs": [
        {
          "internalType": "string",
          "name": "",
          "type": "string"
        }
      ],
      "stateMutability": "view",
      "type": "function"
    },
    {
      "inputs": [
        {
          "internalType": "uint256",
          "name": "",
          "type": "uint256"
        }
      ],
      "name": "names",
      "outputs": [
        {
          "internalType": "string",
          "name": "",
          "type": "string"
        }
      ],
      "stateMutability": "view",
      "type": "function"
    },
    {
      "inputs": [],
      "name": "owner",
      "outputs": [
        {
          "internalType": "address payable",
          "name": "",
          "type": "address"
        }
      ],
      "stateMutability": "view",
      "type": "function"
    },
    {
      "inputs": [
        {
          "internalType": "uint256",
          "name": "tokenId",
          "type": "uint256"
        }
      ],
      "name": "ownerOf",
      "outputs": [
        {
          "internalType": "address",
          "name": "",
          "type": "address"
        }
      ],
      "stateMutability": "view",
      "type": "function"
    },
    {
      "inputs": [
        {
          "internalType": "string",
          "name": "_name",
          "type": "string"
        }
      ],
      "name": "price",
      "outputs": [
        {
          "internalType": "uint256",
          "name": "",
          "type": "uint256"
        }
      ],
      "stateMutability": "pure",
      "type": "function"
    },
    {
      "inputs": [
        {
          "internalType": "string",
          "name": "",
          "type": "string"
        }
      ],
      "name": "records",
      "outputs": [
        {
          "internalType": "string",
          "name": "",
          "type": "string"
        }
      ],
      "stateMutability": "view",
      "type": "function"
    },
    {
      "inputs": [
        {
          "internalType": "string",
          "name": "name",
          "type": "string"
        }
      ],
      "name": "register",
      "outputs": [],
      "stateMutability": "payable",
      "type": "function"
    },
    {
      "inputs": [],
      "name": "renounceOwnership",
      "outputs": [],
      "stateMutability": "nonpayable",
      "type": "function"
    },
    {
      "inputs": [
        {
          "internalType": "address",
          "name": "from",
          "type": "address"
        },
        {
          "internalType": "address",
          "name": "to",
          "type": "address"
        },
        {
          "internalType": "uint256",
          "name": "tokenId",
          "type": "uint256"
        }
      ],
      "name": "safeTransferFrom",
      "outputs": [],
      "stateMutability": "nonpayable",
      "type": "function"
    },
    {
      "inputs": [
        {
          "internalType": "address",
          "name": "from",
          "type": "address"
        },
        {
          "internalType": "address",
          "name": "to",
          "type": "address"
        },
        {
          "internalType": "uint256",
          "name": "tokenId",
          "type": "uint256"
        },
        {
          "internalType": "bytes",
          "name": "data",
          "type": "bytes"
        }
      ],
      "name": "safeTransferFrom",
      "outputs": [],
      "stateMutability": "nonpayable",
      "type": "function"
    },
    {
      "inputs": [
        {
          "internalType": "address",
          "name": "operator",
          "type": "address"
        },
        {
          "internalType": "bool",
          "name": "approved",
          "type": "bool"
        }
      ],
      "name": "setApprovalForAll",
      "outputs": [],
      "stateMutability": "nonpayable",
      "type": "function"
    },
    {
      "inputs": [
        {
          "internalType": "string",
          "name": "name",
          "type": "string"
        },
        {
          "internalType": "string",
          "name": "record",
          "type": "string"
        }
      ],
      "name": "setRecord",
      "outputs": [],
      "stateMutability": "nonpayable",
      "type": "function"
    },
    {
      "inputs": [
        {
          "internalType": "bytes4",
          "name": "interfaceId",
          "type": "bytes4"
        }
      ],
      "name": "supportsInterface",
      "outputs": [
        {
          "internalType": "bool",
          "name": "",
          "type": "bool"
        }
      ],
      "stateMutability": "view",
      "type": "function"
    },
    {
      "inputs": [],
      "name": "symbol",
      "outputs": [
        {
          "internalType": "string",
          "name": "",
          "type": "string"
        }
      ],
      "stateMutability": "view",
      "type": "function"
    },
    {
      "inputs": [],
      "name": "tld",
      "outputs": [
        {
          "internalType": "string",
          "name": "",
          "type": "string"
        }
      ],
      "stateMutability": "view",
      "type": "function"
    },
    {
      "inputs": [
        {
          "internalType": "uint256",
          "name": "tokenId",
          "type": "uint256"
        }
      ],
      "name": "tokenURI",
      "outputs": [
        {
          "internalType": "string",
          "name": "",
          "type": "string"
        }
      ],
      "stateMutability": "view",
      "type": "function"
    },
    {
      "inputs": [
        {
          "internalType": "address",
          "name": "from",
          "type": "address"
        },
        {
          "internalType": "address",
          "name": "to",
          "type": "address"
        },
        {
          "internalType": "uint256",
          "name": "tokenId",
          "type": "uint256"
        }
      ],
      "name": "transferFrom",
      "outputs": [],
      "stateMutability": "nonpayable",
      "type": "function"
    },
    {
      "inputs": [
        {
          "internalType": "address",
          "name": "newOwner",
          "type": "address"
        }
      ],
      "name": "transferOwnership",
      "outputs": [],
      "stateMutability": "nonpayable",
      "type": "function"
    },
    {
      "inputs": [],
      "name": "withdraw",
      "outputs": [],
      "stateMutability": "nonpayable",
      "type": "function"
    }
  ],
  "bytecode": "0x608060405260405180610760016040528061073b81526020016200595861073b9139600a90816200003191906200060d565b506040518060400160405280600d81526020017f3c2f746578743e3c2f7376673e00000000000000000000000000000000000000815250600b90816200007891906200060d565b50604051620060933803806200609383398181016040528101906200009e919062000858565b6040518060400160405280601881526020017f42726f74686572686f6f64204e616d65205365727669636500000000000000008152506040518060400160405280600381526020017f424e53000000000000000000000000000000000000000000000000000000000081525081600090816200011b91906200060d565b5080600190816200012d91906200060d565b5050506200015062000144620001f660201b60201c565b620001fe60201b60201c565b33600760006101000a81548173ffffffffffffffffffffffffffffffffffffffff021916908373ffffffffffffffffffffffffffffffffffffffff1602179055508060099081620001a291906200060d565b50620001ef6040518060400160405280601881526020017f2573206e616d652073657276696365206465706c6f796564000000000000000081525082620002c460201b620015d71760201c565b5062000936565b600033905090565b6000600760009054906101000a900473ffffffffffffffffffffffffffffffffffffffff16905081600760006101000a81548173ffffffffffffffffffffffffffffffffffffffff021916908373ffffffffffffffffffffffffffffffffffffffff1602179055508173ffffffffffffffffffffffffffffffffffffffff168173ffffffffffffffffffffffffffffffffffffffff167f8be0079c531659141344cd1fd0a4f28419497f9722a3daafe3b4186f6b6457e060405160405180910390a35050565b620003668282604051602401620002dd929190620008fb565b6040516020818303038152906040527f4b5c4277000000000000000000000000000000000000000000000000000000007bffffffffffffffffffffffffffffffffffffffffffffffffffffffff19166020820180517bffffffffffffffffffffffffffffffffffffffffffffffffffffffff83818316178352505050506200036a60201b60201c565b5050565b60008151905060006a636f6e736f6c652e6c6f679050602083016000808483855afa5050505050565b600081519050919050565b7f4e487b7100000000000000000000000000000000000000000000000000000000600052604160045260246000fd5b7f4e487b7100000000000000000000000000000000000000000000000000000000600052602260045260246000fd5b600060028204905060018216806200041557607f821691505b6020821081036200042b576200042a620003cd565b5b50919050565b60008190508160005260206000209050919050565b60006020601f8301049050919050565b600082821b905092915050565b600060088302620004957fffffffffffffffffffffffffffffffffffffffffffffffffffffffffffffffff8262000456565b620004a1868362000456565b95508019841693508086168417925050509392505050565b6000819050919050565b6000819050919050565b6000620004ee620004e8620004e284620004b9565b620004c3565b620004b9565b9050919050565b6000819050919050565b6200050a83620004cd565b620005226200051982620004f5565b84845462000463565b825550505050565b600090565b620005396200052a565b62000546818484620004ff565b505050565b5b818110156200056e57620005626000826200052f565b6001810190506200054c565b5050565b601f821115620005bd57620005878162000431565b620005928462000446565b81016020851015620005a2578190505b620005ba620005b18562000446565b8301826200054b565b50505b505050565b600082821c905092915050565b6000620005e260001984600802620005c2565b1980831691505092915050565b6000620005fd8383620005cf565b9150826002028217905092915050565b620006188262000393565b67ffffffffffffffff8111156200063457620006336200039e565b5b620006408254620003fc565b6200064d82828562000572565b600060209050601f83116001811462000685576000841562000670578287015190505b6200067c8582620005ef565b865550620006ec565b601f198416620006958662000431565b60005b82811015620006bf5784890151825560018201915060208501945060208101905062000698565b86831015620006df5784890151620006db601f891682620005cf565b8355505b6001600288020188555050505b505050505050565b6000604051905090565b600080fd5b600080fd5b600080fd5b600080fd5b6000601f19601f8301169050919050565b6200072e8262000712565b810181811067ffffffffffffffff8211171562000750576200074f6200039e565b5b80604052505050565b600062000765620006f4565b905062000773828262000723565b919050565b600067ffffffffffffffff8211156200079657620007956200039e565b5b620007a18262000712565b9050602081019050919050565b60005b83811015620007ce578082015181840152602081019050620007b1565b60008484015250505050565b6000620007f1620007eb8462000778565b62000759565b90508281526020810184848401111562000810576200080f6200070d565b5b6200081d848285620007ae565b509392505050565b600082601f8301126200083d576200083c62000708565b5b81516200084f848260208601620007da565b91505092915050565b600060208284031215620008715762000870620006fe565b5b600082015167ffffffffffffffff81111562000892576200089162000703565b5b620008a08482850162000825565b91505092915050565b600082825260208201905092915050565b6000620008c78262000393565b620008d38185620008a9565b9350620008e5818560208601620007ae565b620008f08162000712565b840191505092915050565b60006040820190508181036000830152620009178185620008ba565b905081810360208301526200092d8184620008ba565b90509392505050565b61501280620009466000396000f3fe60806040526004361061019c5760003560e01c806370a08231116100ec578063c1880a981161008a578063f2c298be11610064578063f2c298be14610610578063f2fde38b1461062c578063fb825e5f14610655578063fe2c6198146106805761019c565b8063c1880a981461056d578063c87b56dd14610596578063e985e9c5146105d35761019c565b806395d89b41116100c657806395d89b41146104b3578063a22cb465146104de578063b88d4fde14610507578063bf40fac1146105305761019c565b806370a0823114610434578063715018a6146104715780638da5cb5b146104885761019c565b8063264492351161015957806342842e0e1161013357806342842e0e146103545780634622ab031461037d578063541e771d146103ba5780636352211e146103f75761019c565b806326449235146102d55780632d551432146103125780633ccfd60b1461033d5761019c565b806301ffc9a7146101a157806306fdde03146101de578063081812fc14610209578063095ea7b31461024657806311dd88451461026f57806323b872dd146102ac575b600080fd5b3480156101ad57600080fd5b506101c860048036038101906101c39190613269565b6106bd565b6040516101d591906132b1565b60405180910390f35b3480156101ea57600080fd5b506101f361079f565b604051610200919061335c565b60405180910390f35b34801561021557600080fd5b50610230600480360381019061022b91906133b4565b610831565b60405161023d9190613422565b60405180910390f35b34801561025257600080fd5b5061026d60048036038101906102689190613469565b610877565b005b34801561027b57600080fd5b506102966004803603810190610291919061350e565b61098e565b6040516102a3919061335c565b60405180910390f35b3480156102b857600080fd5b506102d360048036038101906102ce919061355b565b610a41565b005b3480156102e157600080fd5b506102fc60048036038101906102f791906136de565b610aa1565b6040516103099190613422565b60405180910390f35b34801561031e57600080fd5b50610327610aea565b604051610334919061335c565b60405180910390f35b34801561034957600080fd5b50610352610b78565b005b34801561036057600080fd5b5061037b6004803603810190610376919061355b565b610c35565b005b34801561038957600080fd5b506103a4600480360381019061039f91906133b4565b610c55565b6040516103b1919061335c565b60405180910390f35b3480156103c657600080fd5b506103e160048036038101906103dc91906136de565b610cf5565b6040516103ee919061335c565b60405180910390f35b34801561040357600080fd5b5061041e600480360381019061041991906133b4565b610dab565b60405161042b9190613422565b60405180910390f35b34801561044057600080fd5b5061045b60048036038101906104569190613727565b610e31565b6040516104689190613763565b60405180910390f35b34801561047d57600080fd5b50610486610ee8565b005b34801561049457600080fd5b5061049d610efc565b6040516104aa919061379f565b60405180910390f35b3480156104bf57600080fd5b506104c8610f22565b6040516104d5919061335c565b60405180910390f35b3480156104ea57600080fd5b50610505600480360381019061050091906137e6565b610fb4565b005b34801561051357600080fd5b5061052e600480360381019061052991906138c7565b610fca565b005b34801561053c57600080fd5b506105576004803603810190610552919061350e565b61102c565b6040516105649190613422565b60405180910390f35b34801561057957600080fd5b50610594600480360381019061058f919061394a565b611077565b005b3480156105a257600080fd5b506105bd60048036038101906105b891906133b4565b611089565b6040516105ca919061335c565b60405180910390f35b3480156105df57600080fd5b506105fa60048036038101906105f591906139cb565b61119b565b60405161060791906132b1565b60405180910390f35b61062a6004803603810190610625919061350e565b61122f565b005b34801561063857600080fd5b50610653600480360381019061064e9190613727565b61127c565b005b34801561066157600080fd5b5061066a6112ff565b6040516106779190613b17565b60405180910390f35b34801561068c57600080fd5b506106a760048036038101906106a2919061350e565b6114dd565b6040516106b49190613763565b60405180910390f35b60007f80ac58cd000000000000000000000000000000000000000000000000000000007bffffffffffffffffffffffffffffffffffffffffffffffffffffffff1916827bffffffffffffffffffffffffffffffffffffffffffffffffffffffff1916148061078857507f5b5e139f000000000000000000000000000000000000000000000000000000007bffffffffffffffffffffffffffffffffffffffffffffffffffffffff1916827bffffffffffffffffffffffffffffffffffffffffffffffffffffffff1916145b80610798575061079782611673565b5b9050919050565b6060600080546107ae90613b68565b80601f01602080910402602001604051908101604052809291908181526020018280546107da90613b68565b80156108275780601f106107fc57610100808354040283529160200191610827565b820191906000526020600020905b81548152906001019060200180831161080a57829003601f168201915b5050505050905090565b600061083c826116dd565b6004600083815260200190815260200160002060009054906101000a900473ffffffffffffffffffffffffffffffffffffffff169050919050565b600061088282610dab565b90508073ffffffffffffffffffffffffffffffffffffffff168373ffffffffffffffffffffffffffffffffffffffff16036108f2576040517f08c379a00000000000000000000000000000000000000000000000000000000081526004016108e990613c0b565b60405180910390fd5b8073ffffffffffffffffffffffffffffffffffffffff16610911611728565b73ffffffffffffffffffffffffffffffffffffffff161480610940575061093f8161093a611728565b61119b565b5b61097f576040517f08c379a000000000000000000000000000000000000000000000000000000000815260040161097690613c9d565b60405180910390fd5b6109898383611730565b505050565b6060600d83836040516109a2929190613ced565b908152602001604051809103902080546109bb90613b68565b80601f01602080910402602001604051908101604052809291908181526020018280546109e790613b68565b8015610a345780601f10610a0957610100808354040283529160200191610a34565b820191906000526020600020905b815481529060010190602001808311610a1757829003601f168201915b5050505050905092915050565b610a52610a4c611728565b826117e9565b610a91576040517f08c379a0000000000000000000000000000000000000000000000000000000008152600401610a8890613d78565b60405180910390fd5b610a9c83838361187e565b505050565b600c818051602081018201805184825260208301602085012081835280955050505050506000915054906101000a900473ffffffffffffffffffffffffffffffffffffffff1681565b60098054610af790613b68565b80601f0160208091040260200160405190810160405280929190818152602001828054610b2390613b68565b8015610b705780601f10610b4557610100808354040283529160200191610b70565b820191906000526020600020905b815481529060010190602001808311610b5357829003601f168201915b505050505081565b610b80611b77565b600047905060003373ffffffffffffffffffffffffffffffffffffffff1682604051610bab90613dc9565b60006040518083038185875af1925050503d8060008114610be8576040519150601f19603f3d011682016040523d82523d6000602084013e610bed565b606091505b5050905080610c31576040517f08c379a0000000000000000000000000000000000000000000000000000000008152600401610c2890613e2a565b60405180910390fd5b5050565b610c5083838360405180602001604052806000815250610fca565b505050565b600e6020528060005260406000206000915090508054610c7490613b68565b80601f0160208091040260200160405190810160405280929190818152602001828054610ca090613b68565b8015610ced5780601f10610cc257610100808354040283529160200191610ced565b820191906000526020600020905b815481529060010190602001808311610cd057829003601f168201915b505050505081565b600d818051602081018201805184825260208301602085012081835280955050505050506000915090508054610d2a90613b68565b80601f0160208091040260200160405190810160405280929190818152602001828054610d5690613b68565b8015610da35780601f10610d7857610100808354040283529160200191610da3565b820191906000526020600020905b815481529060010190602001808311610d8657829003601f168201915b505050505081565b600080610db783611c10565b9050600073ffffffffffffffffffffffffffffffffffffffff168173ffffffffffffffffffffffffffffffffffffffff1603610e28576040517f08c379a0000000000000000000000000000000000000000000000000000000008152600401610e1f90613e96565b60405180910390fd5b80915050919050565b60008073ffffffffffffffffffffffffffffffffffffffff168273ffffffffffffffffffffffffffffffffffffffff1603610ea1576040517f08c379a0000000000000000000000000000000000000000000000000000000008152600401610e9890613f28565b60405180910390fd5b600360008373ffffffffffffffffffffffffffffffffffffffff1673ffffffffffffffffffffffffffffffffffffffff168152602001908152602001600020549050919050565b610ef0611b77565b610efa6000611c4d565b565b600760009054906101000a900473ffffffffffffffffffffffffffffffffffffffff1681565b606060018054610f3190613b68565b80601f0160208091040260200160405190810160405280929190818152602001828054610f5d90613b68565b8015610faa5780601f10610f7f57610100808354040283529160200191610faa565b820191906000526020600020905b815481529060010190602001808311610f8d57829003601f168201915b5050505050905090565b610fc6610fbf611728565b8383611d13565b5050565b610fdb610fd5611728565b836117e9565b61101a576040517f08c379a000000000000000000000000000000000000000000000000000000000815260040161101190613d78565b60405180910390fd5b61102684848484611e7f565b50505050565b6000600c8383604051611040929190613ced565b908152602001604051809103902060009054906101000a900473ffffffffffffffffffffffffffffffffffffffff16905092915050565b61108384848484611edb565b50505050565b6060611094826116dd565b60006006600084815260200190815260200160002080546110b490613b68565b80601f01602080910402602001604051908101604052809291908181526020018280546110e090613b68565b801561112d5780601f106111025761010080835404028352916020019161112d565b820191906000526020600020905b81548152906001019060200180831161111057829003601f168201915b50505050509050600061113e611fb6565b90506000815103611153578192505050611196565b600082511115611188578082604051602001611170929190613f79565b60405160208183030381529060405292505050611196565b61119184611fcd565b925050505b919050565b6000600560008473ffffffffffffffffffffffffffffffffffffffff1673ffffffffffffffffffffffffffffffffffffffff16815260200190815260200160002060008373ffffffffffffffffffffffffffffffffffffffff1673ffffffffffffffffffffffffffffffffffffffff16815260200190815260200160002060009054906101000a900460ff16905092915050565b6112398282612035565b6112786040518060400160405280601b81526020017f2573206861732072656769737465726564206120646f6d61696e210000000000815250336123e7565b5050565b611284611b77565b600073ffffffffffffffffffffffffffffffffffffffff168173ffffffffffffffffffffffffffffffffffffffff16036112f3576040517f08c379a00000000000000000000000000000000000000000000000000000000081526004016112ea9061400f565b60405180910390fd5b6112fc81611c4d565b50565b606061133f6040518060400160405280601f81526020017f47657474696e6720616c6c206e616d65732066726f6d20636f6e747261637400815250612483565b600061134b600861251c565b67ffffffffffffffff811115611364576113636135b3565b5b60405190808252806020026020018201604052801561139757816020015b60608152602001906001900390816113825790505b50905060005b6113a7600861251c565b8110156114d557600e600082815260200190815260200160002080546113cc90613b68565b80601f01602080910402602001604051908101604052809291908181526020018280546113f890613b68565b80156114455780601f1061141a57610100808354040283529160200191611445565b820191906000526020600020905b81548152906001019060200180831161142857829003601f168201915b505050505082828151811061145d5761145c61402f565b5b60200260200101819052506114c26040518060400160405280601781526020017f4e616d6520666f7220746f6b656e202564206973202573000000000000000000815250828484815181106114b5576114b461402f565b5b602002602001015161252a565b80806114cd9061408d565b91505061139d565b508091505090565b60008061152d84848080601f016020809104026020016040519081016040528093929190818152602001838380828437600081840152601f19601f820116905080830192505050505050506125c9565b905060008111611572576040517f08c379a000000000000000000000000000000000000000000000000000000000815260040161156990614121565b60405180910390fd5b6003810361158a5766b1a2bc2ec500009150506115d1565b600481036115a257666a94d74f4300009150506115d1565b600a81116115ba57662386f26fc100009150506115d1565b662386f26fc10000816115cd9190614141565b9150505b92915050565b61166f82826040516024016115ed929190614183565b6040516020818303038152906040527f4b5c4277000000000000000000000000000000000000000000000000000000007bffffffffffffffffffffffffffffffffffffffffffffffffffffffff19166020820180517bffffffffffffffffffffffffffffffffffffffffffffffffffffffff838183161783525050505061277e565b5050565b60007f01ffc9a7000000000000000000000000000000000000000000000000000000007bffffffffffffffffffffffffffffffffffffffffffffffffffffffff1916827bffffffffffffffffffffffffffffffffffffffffffffffffffffffff1916149050919050565b6116e6816127a7565b611725576040517f08c379a000000000000000000000000000000000000000000000000000000000815260040161171c90613e96565b60405180910390fd5b50565b600033905090565b816004600083815260200190815260200160002060006101000a81548173ffffffffffffffffffffffffffffffffffffffff021916908373ffffffffffffffffffffffffffffffffffffffff160217905550808273ffffffffffffffffffffffffffffffffffffffff166117a383610dab565b73ffffffffffffffffffffffffffffffffffffffff167f8c5be1e5ebec7d5bd14f71427d1e84f3dd0314c0f7b2291e5b200ac8c7c3b92560405160405180910390a45050565b6000806117f583610dab565b90508073ffffffffffffffffffffffffffffffffffffffff168473ffffffffffffffffffffffffffffffffffffffff1614806118375750611836818561119b565b5b8061187557508373ffffffffffffffffffffffffffffffffffffffff1661185d84610831565b73ffffffffffffffffffffffffffffffffffffffff16145b91505092915050565b8273ffffffffffffffffffffffffffffffffffffffff1661189e82610dab565b73ffffffffffffffffffffffffffffffffffffffff16146118f4576040517f08c379a00000000000000000000000000000000000000000000000000000000081526004016118eb9061422c565b60405180910390fd5b600073ffffffffffffffffffffffffffffffffffffffff168273ffffffffffffffffffffffffffffffffffffffff1603611963576040517f08c379a000000000000000000000000000000000000000000000000000000000815260040161195a906142be565b60405180910390fd5b61197083838360016127e8565b8273ffffffffffffffffffffffffffffffffffffffff1661199082610dab565b73ffffffffffffffffffffffffffffffffffffffff16146119e6576040517f08c379a00000000000000000000000000000000000000000000000000000000081526004016119dd9061422c565b60405180910390fd5b6004600082815260200190815260200160002060006101000a81549073ffffffffffffffffffffffffffffffffffffffff02191690556001600360008573ffffffffffffffffffffffffffffffffffffffff1673ffffffffffffffffffffffffffffffffffffffff168152602001908152602001600020600082825403925050819055506001600360008473ffffffffffffffffffffffffffffffffffffffff1673ffffffffffffffffffffffffffffffffffffffff16815260200190815260200160002060008282540192505081905550816002600083815260200190815260200160002060006101000a81548173ffffffffffffffffffffffffffffffffffffffff021916908373ffffffffffffffffffffffffffffffffffffffff160217905550808273ffffffffffffffffffffffffffffffffffffffff168473ffffffffffffffffffffffffffffffffffffffff167fddf252ad1be2c89b69c2b068fc378daa952ba7f163c4a11628f55a4df523b3ef60405160405180910390a4611b72838383600161290e565b505050565b611b7f611728565b73ffffffffffffffffffffffffffffffffffffffff16600760009054906101000a900473ffffffffffffffffffffffffffffffffffffffff1673ffffffffffffffffffffffffffffffffffffffff1614611c0e576040517f08c379a0000000000000000000000000000000000000000000000000000000008152600401611c059061432a565b60405180910390fd5b565b60006002600083815260200190815260200160002060009054906101000a900473ffffffffffffffffffffffffffffffffffffffff169050919050565b6000600760009054906101000a900473ffffffffffffffffffffffffffffffffffffffff16905081600760006101000a81548173ffffffffffffffffffffffffffffffffffffffff021916908373ffffffffffffffffffffffffffffffffffffffff1602179055508173ffffffffffffffffffffffffffffffffffffffff168173ffffffffffffffffffffffffffffffffffffffff167f8be0079c531659141344cd1fd0a4f28419497f9722a3daafe3b4186f6b6457e060405160405180910390a35050565b8173ffffffffffffffffffffffffffffffffffffffff168373ffffffffffffffffffffffffffffffffffffffff1603611d81576040517f08c379a0000000000000000000000000000000000000000000000000000000008152600401611d7890614396565b60405180910390fd5b80600560008573ffffffffffffffffffffffffffffffffffffffff1673ffffffffffffffffffffffffffffffffffffffff16815260200190815260200160002060008473ffffffffffffffffffffffffffffffffffffffff1673ffffffffffffffffffffffffffffffffffffffff16815260200190815260200160002060006101000a81548160ff0219169083151502179055508173ffffffffffffffffffffffffffffffffffffffff168373ffffffffffffffffffffffffffffffffffffffff167f17307eab39ab6107e8899845ad3d59bd9653f200f220920489ca2b5937696c3183604051611e7291906132b1565b60405180910390a3505050565b611e8a84848461187e565b611e9684848484612914565b611ed5576040517f08c379a0000000000000000000000000000000000000000000000000000000008152600401611ecc90614428565b60405180910390fd5b50505050565b3373ffffffffffffffffffffffffffffffffffffffff16600c8585604051611f04929190613ced565b908152602001604051809103902060009054906101000a900473ffffffffffffffffffffffffffffffffffffffff1673ffffffffffffffffffffffffffffffffffffffff1614611f80576040517f82b4290000000000000000000000000000000000000000000000000000000000815260040160405180910390fd5b8181600d8686604051611f94929190613ced565b90815260200160405180910390209182611faf9291906145ff565b5050505050565b606060405180602001604052806000815250905090565b6060611fd8826116dd565b6000611fe2611fb6565b90506000815111612002576040518060200160405280600081525061202d565b8061200c84612a9b565b60405160200161201d929190613f79565b6040516020818303038152906040525b915050919050565b600073ffffffffffffffffffffffffffffffffffffffff16600c838360405161205f929190613ced565b908152602001604051809103902060009054906101000a900473ffffffffffffffffffffffffffffffffffffffff1673ffffffffffffffffffffffffffffffffffffffff16146120db576040517f3a81d6fc00000000000000000000000000000000000000000000000000000000815260040160405180910390fd5b60006120e783836114dd565b90508034101561212c576040517f08c379a00000000000000000000000000000000000000000000000000000000081526004016121239061471b565b60405180910390fd5b6000838360096040516020016121449392919061480a565b60405160208183030381529060405290506000600a82600b60405160200161216e9392919061483b565b6040516020818303038152906040529050600061218b600861251c565b905060006121dc87878080601f016020809104026020016040519081016040528093929190818152602001838380828437600081840152601f19601f820116905080830192505050505050506125c9565b905060006121e982612a9b565b90506122dd604051806060016040528060318152602001614f6c6031913989898080601f016020809104026020016040519081016040528093929190818152602001838380828437600081840152601f19601f820116905080830192505050505050506009805461225990613b68565b80601f016020809104026020016040519081016040528092919081815260200182805461228590613b68565b80156122d25780601f106122a7576101008083540402835291602001916122d2565b820191906000526020600020905b8154815290600101906020018083116122b557829003601f168201915b505050505086612b69565b600061231589896122ed88612c0b565b8560405160200161230194939291906149e8565b604051602081830303815290604052612c0b565b905060008160405160200161232a9190614a93565b60405160208183030381529060405290506123453386612d6e565b61234f8582612d8c565b33600c8b8b604051612362929190613ced565b908152602001604051809103902060006101000a81548173ffffffffffffffffffffffffffffffffffffffff021916908373ffffffffffffffffffffffffffffffffffffffff1602179055508989600e600088815260200190815260200160002091826123d09291906145ff565b506123db6008612df9565b50505050505050505050565b61247f82826040516024016123fd929190614ab5565b6040516020818303038152906040527f319af333000000000000000000000000000000000000000000000000000000007bffffffffffffffffffffffffffffffffffffffffffffffffffffffff19166020820180517bffffffffffffffffffffffffffffffffffffffffffffffffffffffff838183161783525050505061277e565b5050565b61251981604051602401612497919061335c565b6040516020818303038152906040527f41304fac000000000000000000000000000000000000000000000000000000007bffffffffffffffffffffffffffffffffffffffffffffffffffffffff19166020820180517bffffffffffffffffffffffffffffffffffffffffffffffffffffffff838183161783525050505061277e565b50565b600081600001549050919050565b6125c483838360405160240161254293929190614ae5565b6040516020818303038152906040527f5970e089000000000000000000000000000000000000000000000000000000007bffffffffffffffffffffffffffffffffffffffffffffffffffffffff19166020820180517bffffffffffffffffffffffffffffffffffffffffffffffffffffffff838183161783525050505061277e565b505050565b60008060008084519050600092505b808210156127735760008583815181106125f5576125f461402f565b5b602001015160f81c60f81b9050608060f81b817effffffffffffffffffffffffffffffffffffffffffffffffffffffffffffff191610156126445760018361263d9190614b2a565b925061275f565b60e060f81b817effffffffffffffffffffffffffffffffffffffffffffffffffffffffffffff191610156126865760028361267f9190614b2a565b925061275e565b60f060f81b817effffffffffffffffffffffffffffffffffffffffffffffffffffffffffffff191610156126c8576003836126c19190614b2a565b925061275d565b60f8801b817effffffffffffffffffffffffffffffffffffffffffffffffffffffffffffff19161015612709576004836127029190614b2a565b925061275c565b60fc60f81b817effffffffffffffffffffffffffffffffffffffffffffffffffffffffffffff1916101561274b576005836127449190614b2a565b925061275b565b6006836127589190614b2a565b92505b5b5b5b5b50828061276b9061408d565b9350506125d8565b829350505050919050565b60008151905060006a636f6e736f6c652e6c6f679050602083016000808483855afa5050505050565b60008073ffffffffffffffffffffffffffffffffffffffff166127c983611c10565b73ffffffffffffffffffffffffffffffffffffffff1614159050919050565b600181111561290857600073ffffffffffffffffffffffffffffffffffffffff168473ffffffffffffffffffffffffffffffffffffffff161461287c5780600360008673ffffffffffffffffffffffffffffffffffffffff1673ffffffffffffffffffffffffffffffffffffffff16815260200190815260200160002060008282546128749190614b5e565b925050819055505b600073ffffffffffffffffffffffffffffffffffffffff168373ffffffffffffffffffffffffffffffffffffffff16146129075780600360008573ffffffffffffffffffffffffffffffffffffffff1673ffffffffffffffffffffffffffffffffffffffff16815260200190815260200160002060008282546128ff9190614b2a565b925050819055505b5b50505050565b50505050565b60006129358473ffffffffffffffffffffffffffffffffffffffff16612e0f565b15612a8e578373ffffffffffffffffffffffffffffffffffffffff1663150b7a0261295e611728565b8786866040518563ffffffff1660e01b81526004016129809493929190614be7565b6020604051808303816000875af19250505080156129bc57506040513d601f19601f820116820180604052508101906129b99190614c48565b60015b612a3e573d80600081146129ec576040519150601f19603f3d011682016040523d82523d6000602084013e6129f1565b606091505b506000815103612a36576040517f08c379a0000000000000000000000000000000000000000000000000000000008152600401612a2d90614428565b60405180910390fd5b805181602001fd5b63150b7a0260e01b7bffffffffffffffffffffffffffffffffffffffffffffffffffffffff1916817bffffffffffffffffffffffffffffffffffffffffffffffffffffffff191614915050612a93565b600190505b949350505050565b606060006001612aaa84612e32565b01905060008167ffffffffffffffff811115612ac957612ac86135b3565b5b6040519080825280601f01601f191660200182016040528015612afb5781602001600182028036833780820191505090505b509050600082602001820190505b600115612b5e578080600190039150507f3031323334353637383961626364656600000000000000000000000000000000600a86061a8153600a8581612b5257612b51614c75565b5b04945060008503612b09575b819350505050919050565b612c0584848484604051602401612b839493929190614ca4565b6040516020818303038152906040527f8eafb02b000000000000000000000000000000000000000000000000000000007bffffffffffffffffffffffffffffffffffffffffffffffffffffffff19166020820180517bffffffffffffffffffffffffffffffffffffffffffffffffffffffff838183161783525050505061277e565b50505050565b60606000825103612c2d57604051806020016040528060008152509050612d69565b6000604051806060016040528060408152602001614f9d6040913990506000600360028551612c5c9190614b2a565b612c669190614cfe565b6004612c729190614141565b67ffffffffffffffff811115612c8b57612c8a6135b3565b5b6040519080825280601f01601f191660200182016040528015612cbd5781602001600182028036833780820191505090505b509050600182016020820185865187015b80821015612d29576003820191508151603f8160121c168501518453600184019350603f81600c1c168501518453600184019350603f8160061c168501518453600184019350603f8116850151845360018401935050612cce565b5050600386510660018114612d455760028114612d5857612d60565b603d6001830353603d6002830353612d60565b603d60018303535b50505080925050505b919050565b612d88828260405180602001604052806000815250612f85565b5050565b612d95826127a7565b612dd4576040517f08c379a0000000000000000000000000000000000000000000000000000000008152600401612dcb90614da1565b60405180910390fd5b80600660008481526020019081526020016000209081612df49190614dc1565b505050565b6001816000016000828254019250508190555050565b6000808273ffffffffffffffffffffffffffffffffffffffff163b119050919050565b600080600090507a184f03e93ff9f4daa797ed6e38ed64bf6a1f0100000000000000008310612e90577a184f03e93ff9f4daa797ed6e38ed64bf6a1f0100000000000000008381612e8657612e85614c75565b5b0492506040810190505b6d04ee2d6d415b85acef81000000008310612ecd576d04ee2d6d415b85acef81000000008381612ec357612ec2614c75565b5b0492506020810190505b662386f26fc100008310612efc57662386f26fc100008381612ef257612ef1614c75565b5b0492506010810190505b6305f5e1008310612f25576305f5e1008381612f1b57612f1a614c75565b5b0492506008810190505b6127108310612f4a576127108381612f4057612f3f614c75565b5b0492506004810190505b60648310612f6d5760648381612f6357612f62614c75565b5b0492506002810190505b600a8310612f7c576001810190505b80915050919050565b612f8f8383612fe0565b612f9c6000848484612914565b612fdb576040517f08c379a0000000000000000000000000000000000000000000000000000000008152600401612fd290614428565b60405180910390fd5b505050565b600073ffffffffffffffffffffffffffffffffffffffff168273ffffffffffffffffffffffffffffffffffffffff160361304f576040517f08c379a000000000000000000000000000000000000000000000000000000000815260040161304690614edf565b60405180910390fd5b613058816127a7565b15613098576040517f08c379a000000000000000000000000000000000000000000000000000000000815260040161308f90614f4b565b60405180910390fd5b6130a66000838360016127e8565b6130af816127a7565b156130ef576040517f08c379a00000000000000000000000000000000000000000000000000000000081526004016130e690614f4b565b60405180910390fd5b6001600360008473ffffffffffffffffffffffffffffffffffffffff1673ffffffffffffffffffffffffffffffffffffffff16815260200190815260200160002060008282540192505081905550816002600083815260200190815260200160002060006101000a81548173ffffffffffffffffffffffffffffffffffffffff021916908373ffffffffffffffffffffffffffffffffffffffff160217905550808273ffffffffffffffffffffffffffffffffffffffff16600073ffffffffffffffffffffffffffffffffffffffff167fddf252ad1be2c89b69c2b068fc378daa952ba7f163c4a11628f55a4df523b3ef60405160405180910390a46131f960008383600161290e565b5050565b6000604051905090565b600080fd5b600080fd5b60007fffffffff0000000000000000000000000000000000000000000000000000000082169050919050565b61324681613211565b811461325157600080fd5b50565b6000813590506132638161323d565b92915050565b60006020828403121561327f5761327e613207565b5b600061328d84828501613254565b91505092915050565b60008115159050919050565b6132ab81613296565b82525050565b60006020820190506132c660008301846132a2565b92915050565b600081519050919050565b600082825260208201905092915050565b60005b838110156133065780820151818401526020810190506132eb565b60008484015250505050565b6000601f19601f8301169050919050565b600061332e826132cc565b61333881856132d7565b93506133488185602086016132e8565b61335181613312565b840191505092915050565b600060208201905081810360008301526133768184613323565b905092915050565b6000819050919050565b6133918161337e565b811461339c57600080fd5b50565b6000813590506133ae81613388565b92915050565b6000602082840312156133ca576133c9613207565b5b60006133d88482850161339f565b91505092915050565b600073ffffffffffffffffffffffffffffffffffffffff82169050919050565b600061340c826133e1565b9050919050565b61341c81613401565b82525050565b60006020820190506134376000830184613413565b92915050565b61344681613401565b811461345157600080fd5b50565b6000813590506134638161343d565b92915050565b600080604083850312156134805761347f613207565b5b600061348e85828601613454565b925050602061349f8582860161339f565b9150509250929050565b600080fd5b600080fd5b600080fd5b60008083601f8401126134ce576134cd6134a9565b5b8235905067ffffffffffffffff8111156134eb576134ea6134ae565b5b602083019150836001820283011115613507576135066134b3565b5b9250929050565b6000806020838503121561352557613524613207565b5b600083013567ffffffffffffffff8111156135435761354261320c565b5b61354f858286016134b8565b92509250509250929050565b60008060006060848603121561357457613573613207565b5b600061358286828701613454565b935050602061359386828701613454565b92505060406135a48682870161339f565b9150509250925092565b600080fd5b7f4e487b7100000000000000000000000000000000000000000000000000000000600052604160045260246000fd5b6135eb82613312565b810181811067ffffffffffffffff8211171561360a576136096135b3565b5b80604052505050565b600061361d6131fd565b905061362982826135e2565b919050565b600067ffffffffffffffff821115613649576136486135b3565b5b61365282613312565b9050602081019050919050565b82818337600083830152505050565b600061368161367c8461362e565b613613565b90508281526020810184848401111561369d5761369c6135ae565b5b6136a884828561365f565b509392505050565b600082601f8301126136c5576136c46134a9565b5b81356136d584826020860161366e565b91505092915050565b6000602082840312156136f4576136f3613207565b5b600082013567ffffffffffffffff8111156137125761371161320c565b5b61371e848285016136b0565b91505092915050565b60006020828403121561373d5761373c613207565b5b600061374b84828501613454565b91505092915050565b61375d8161337e565b82525050565b60006020820190506137786000830184613754565b92915050565b6000613789826133e1565b9050919050565b6137998161377e565b82525050565b60006020820190506137b46000830184613790565b92915050565b6137c381613296565b81146137ce57600080fd5b50565b6000813590506137e0816137ba565b92915050565b600080604083850312156137fd576137fc613207565b5b600061380b85828601613454565b925050602061381c858286016137d1565b9150509250929050565b600067ffffffffffffffff821115613841576138406135b3565b5b61384a82613312565b9050602081019050919050565b600061386a61386584613826565b613613565b905082815260208101848484011115613886576138856135ae565b5b61389184828561365f565b509392505050565b600082601f8301126138ae576138ad6134a9565b5b81356138be848260208601613857565b91505092915050565b600080600080608085870312156138e1576138e0613207565b5b60006138ef87828801613454565b945050602061390087828801613454565b93505060406139118782880161339f565b925050606085013567ffffffffffffffff8111156139325761393161320c565b5b61393e87828801613899565b91505092959194509250565b6000806000806040858703121561396457613963613207565b5b600085013567ffffffffffffffff8111156139825761398161320c565b5b61398e878288016134b8565b9450945050602085013567ffffffffffffffff8111156139b1576139b061320c565b5b6139bd878288016134b8565b925092505092959194509250565b600080604083850312156139e2576139e1613207565b5b60006139f085828601613454565b9250506020613a0185828601613454565b9150509250929050565b600081519050919050565b600082825260208201905092915050565b6000819050602082019050919050565b600082825260208201905092915050565b6000613a53826132cc565b613a5d8185613a37565b9350613a6d8185602086016132e8565b613a7681613312565b840191505092915050565b6000613a8d8383613a48565b905092915050565b6000602082019050919050565b6000613aad82613a0b565b613ab78185613a16565b935083602082028501613ac985613a27565b8060005b85811015613b055784840389528151613ae68582613a81565b9450613af183613a95565b925060208a01995050600181019050613acd565b50829750879550505050505092915050565b60006020820190508181036000830152613b318184613aa2565b905092915050565b7f4e487b7100000000000000000000000000000000000000000000000000000000600052602260045260246000fd5b60006002820490506001821680613b8057607f821691505b602082108103613b9357613b92613b39565b5b50919050565b7f4552433732313a20617070726f76616c20746f2063757272656e74206f776e6560008201527f7200000000000000000000000000000000000000000000000000000000000000602082015250565b6000613bf56021836132d7565b9150613c0082613b99565b604082019050919050565b60006020820190508181036000830152613c2481613be8565b9050919050565b7f4552433732313a20617070726f76652063616c6c6572206973206e6f7420746f60008201527f6b656e206f776e6572206f7220617070726f76656420666f7220616c6c000000602082015250565b6000613c87603d836132d7565b9150613c9282613c2b565b604082019050919050565b60006020820190508181036000830152613cb681613c7a565b9050919050565b600081905092915050565b6000613cd48385613cbd565b9350613ce183858461365f565b82840190509392505050565b6000613cfa828486613cc8565b91508190509392505050565b7f4552433732313a2063616c6c6572206973206e6f7420746f6b656e206f776e6560008201527f72206f7220617070726f76656400000000000000000000000000000000000000602082015250565b6000613d62602d836132d7565b9150613d6d82613d06565b604082019050919050565b60006020820190508181036000830152613d9181613d55565b9050919050565b600081905092915050565b50565b6000613db3600083613d98565b9150613dbe82613da3565b600082019050919050565b6000613dd482613da6565b9150819050919050565b7f4661696c656420746f207769746864726177204d617469630000000000000000600082015250565b6000613e146018836132d7565b9150613e1f82613dde565b602082019050919050565b60006020820190508181036000830152613e4381613e07565b9050919050565b7f4552433732313a20696e76616c696420746f6b656e2049440000000000000000600082015250565b6000613e806018836132d7565b9150613e8b82613e4a565b602082019050919050565b60006020820190508181036000830152613eaf81613e73565b9050919050565b7f4552433732313a2061646472657373207a65726f206973206e6f74206120766160008201527f6c6964206f776e65720000000000000000000000000000000000000000000000602082015250565b6000613f126029836132d7565b9150613f1d82613eb6565b604082019050919050565b60006020820190508181036000830152613f4181613f05565b9050919050565b6000613f53826132cc565b613f5d8185613cbd565b9350613f6d8185602086016132e8565b80840191505092915050565b6000613f858285613f48565b9150613f918284613f48565b91508190509392505050565b7f4f776e61626c653a206e6577206f776e657220697320746865207a65726f206160008201527f6464726573730000000000000000000000000000000000000000000000000000602082015250565b6000613ff96026836132d7565b915061400482613f9d565b604082019050919050565b6000602082019050818103600083015261402881613fec565b9050919050565b7f4e487b7100000000000000000000000000000000000000000000000000000000600052603260045260246000fd5b7f4e487b7100000000000000000000000000000000000000000000000000000000600052601160045260246000fd5b60006140988261337e565b91507fffffffffffffffffffffffffffffffffffffffffffffffffffffffffffffffff82036140ca576140c961405e565b5b600182019050919050565b7f446f6d61696e206e616d652063616e2774206265204e756c6c2e000000000000600082015250565b600061410b601a836132d7565b9150614116826140d5565b602082019050919050565b6000602082019050818103600083015261413a816140fe565b9050919050565b600061414c8261337e565b91506141578361337e565b92508282026141658161337e565b9150828204841483151761417c5761417b61405e565b5b5092915050565b6000604082019050818103600083015261419d8185613323565b905081810360208301526141b18184613323565b90509392505050565b7f4552433732313a207472616e736665722066726f6d20696e636f72726563742060008201527f6f776e6572000000000000000000000000000000000000000000000000000000602082015250565b60006142166025836132d7565b9150614221826141ba565b604082019050919050565b6000602082019050818103600083015261424581614209565b9050919050565b7f4552433732313a207472616e7366657220746f20746865207a65726f2061646460008201527f7265737300000000000000000000000000000000000000000000000000000000602082015250565b60006142a86024836132d7565b91506142b38261424c565b604082019050919050565b600060208201905081810360008301526142d78161429b565b9050919050565b7f4f776e61626c653a2063616c6c6572206973206e6f7420746865206f776e6572600082015250565b60006143146020836132d7565b915061431f826142de565b602082019050919050565b6000602082019050818103600083015261434381614307565b9050919050565b7f4552433732313a20617070726f766520746f2063616c6c657200000000000000600082015250565b60006143806019836132d7565b915061438b8261434a565b602082019050919050565b600060208201905081810360008301526143af81614373565b9050919050565b7f4552433732313a207472616e7366657220746f206e6f6e20455243373231526560008201527f63656976657220696d706c656d656e7465720000000000000000000000000000602082015250565b60006144126032836132d7565b915061441d826143b6565b604082019050919050565b6000602082019050818103600083015261444181614405565b9050919050565b600082905092915050565b60008190508160005260206000209050919050565b60006020601f8301049050919050565b600082821b905092915050565b6000600883026144b57fffffffffffffffffffffffffffffffffffffffffffffffffffffffffffffffff82614478565b6144bf8683614478565b95508019841693508086168417925050509392505050565b6000819050919050565b60006144fc6144f76144f28461337e565b6144d7565b61337e565b9050919050565b6000819050919050565b614516836144e1565b61452a61452282614503565b848454614485565b825550505050565b600090565b61453f614532565b61454a81848461450d565b505050565b5b8181101561456e57614563600082614537565b600181019050614550565b5050565b601f8211156145b35761458481614453565b61458d84614468565b8101602085101561459c578190505b6145b06145a885614468565b83018261454f565b50505b505050565b600082821c905092915050565b60006145d6600019846008026145b8565b1980831691505092915050565b60006145ef83836145c5565b9150826002028217905092915050565b6146098383614448565b67ffffffffffffffff811115614622576146216135b3565b5b61462c8254613b68565b614637828285614572565b6000601f8311600181146146665760008415614654578287013590505b61465e85826145e3565b8655506146c6565b601f19841661467486614453565b60005b8281101561469c57848901358255600182019150602085019450602081019050614677565b868310156146b957848901356146b5601f8916826145c5565b8355505b6001600288020188555050505b50505050505050565b7f4e6f7420456e6f756768204d617469632077617320706169642e000000000000600082015250565b6000614705601a836132d7565b9150614710826146cf565b602082019050919050565b60006020820190508181036000830152614734816146f8565b9050919050565b7f2e00000000000000000000000000000000000000000000000000000000000000600082015250565b6000614771600183613cbd565b915061477c8261473b565b600182019050919050565b6000815461479481613b68565b61479e8186613cbd565b945060018216600081146147b957600181146147ce57614801565b60ff1983168652811515820286019350614801565b6147d785614453565b60005b838110156147f9578154818901526001820191506020810190506147da565b838801955050505b50505092915050565b6000614817828587613cc8565b915061482282614764565b915061482e8284614787565b9150819050949350505050565b60006148478286614787565b91506148538285613f48565b915061485f8284614787565b9150819050949350505050565b7f7b226e616d65223a202200000000000000000000000000000000000000000000600082015250565b60006148a2600a83613cbd565b91506148ad8261486c565b600a82019050919050565b7f222c20226465736372697074696f6e223a20224120646f6d61696e206f6e207460008201527f6865204e696e6a61206e616d652073657276696365222c2022696d616765223a60208201527f2022646174613a696d6167652f7376672b786d6c3b6261736536342c00000000604082015250565b600061493a605c83613cbd565b9150614945826148b8565b605c82019050919050565b7f222c226c656e677468223a220000000000000000000000000000000000000000600082015250565b6000614986600c83613cbd565b915061499182614950565b600c82019050919050565b7f227d000000000000000000000000000000000000000000000000000000000000600082015250565b60006149d2600283613cbd565b91506149dd8261499c565b600282019050919050565b60006149f382614895565b9150614a00828688613cc8565b9150614a0b8261492d565b9150614a178285613f48565b9150614a2282614979565b9150614a2e8284613f48565b9150614a39826149c5565b915081905095945050505050565b7f646174613a6170706c69636174696f6e2f6a736f6e3b6261736536342c000000600082015250565b6000614a7d601d83613cbd565b9150614a8882614a47565b601d82019050919050565b6000614a9e82614a70565b9150614aaa8284613f48565b915081905092915050565b60006040820190508181036000830152614acf8185613323565b9050614ade6020830184613413565b9392505050565b60006060820190508181036000830152614aff8186613323565b9050614b0e6020830185613754565b8181036040830152614b208184613323565b9050949350505050565b6000614b358261337e565b9150614b408361337e565b9250828201905080821115614b5857614b5761405e565b5b92915050565b6000614b698261337e565b9150614b748361337e565b9250828203905081811115614b8c57614b8b61405e565b5b92915050565b600081519050919050565b600082825260208201905092915050565b6000614bb982614b92565b614bc38185614b9d565b9350614bd38185602086016132e8565b614bdc81613312565b840191505092915050565b6000608082019050614bfc6000830187613413565b614c096020830186613413565b614c166040830185613754565b8181036060830152614c288184614bae565b905095945050505050565b600081519050614c428161323d565b92915050565b600060208284031215614c5e57614c5d613207565b5b6000614c6c84828501614c33565b91505092915050565b7f4e487b7100000000000000000000000000000000000000000000000000000000600052601260045260246000fd5b60006080820190508181036000830152614cbe8187613323565b90508181036020830152614cd28186613323565b90508181036040830152614ce68185613323565b9050614cf56060830184613754565b95945050505050565b6000614d098261337e565b9150614d148361337e565b925082614d2457614d23614c75565b5b828204905092915050565b7f45524337323155524953746f726167653a2055524920736574206f66206e6f6e60008201527f6578697374656e7420746f6b656e000000000000000000000000000000000000602082015250565b6000614d8b602e836132d7565b9150614d9682614d2f565b604082019050919050565b60006020820190508181036000830152614dba81614d7e565b9050919050565b614dca826132cc565b67ffffffffffffffff811115614de357614de26135b3565b5b614ded8254613b68565b614df8828285614572565b600060209050601f831160018114614e2b5760008415614e19578287015190505b614e2385826145e3565b865550614e8b565b601f198416614e3986614453565b60005b82811015614e6157848901518255600182019150602085019450602081019050614e3c565b86831015614e7e5784890151614e7a601f8916826145c5565b8355505b6001600288020188555050505b505050505050565b7f4552433732313a206d696e7420746f20746865207a65726f2061646472657373600082015250565b6000614ec96020836132d7565b9150614ed482614e93565b602082019050919050565b60006020820190508181036000830152614ef881614ebc565b9050919050565b7f4552433732313a20746f6b656e20616c7265616479206d696e74656400000000600082015250565b6000614f35601c836132d7565b9150614f4082614eff565b602082019050919050565b60006020820190508181036000830152614f6481614f28565b905091905056fe5265676973746572696e672025732e2573206f6e2074686520636f6e7472616374207769746820746f6b656e49442025644142434445464748494a4b4c4d4e4f505152535455565758595a6162636465666768696a6b6c6d6e6f707172737475767778797a303132333435363738392b2fa26469706673582212208cf6ac067b937a679b34b0180f5b8ffe8414c26174ee9fefb20a841201da690064736f6c634300081100333c73766720786d6c6e733d22687474703a2f2f7777772e77332e6f72672f323030302f737667222077696474683d2232373022206865696768743d22323730222066696c6c3d226e6f6e65223e3c706174682066696c6c3d2275726c282361292220643d224d302030683237307632373048307a222f3e3c646566733e3c66696c7465722069643d22622220636f6c6f722d696e746572706f6c6174696f6e2d66696c746572733d2273524742222066696c746572556e6974733d227573657253706163654f6e55736522206865696768743d22323730222077696474683d22323730223e3c666544726f70536861646f772064783d2230222064793d22312220737464446576696174696f6e3d22322220666c6f6f642d6f7061636974793d222e323235222077696474683d223230302522206865696768743d2232303025222f3e3c2f66696c7465723e3c2f646566733e3c7061746820643d224d37322e3836332034322e39343961342e33383220342e3338322030203020302d342e33393420306c2d31302e30383120362e3033322d362e383520332e3933342d31302e30383120362e30333261342e33383220342e3338322030203020312d342e33393420306c2d382e3031332d342e37323161342e353220342e35322030203020312d312e3538392d312e36313620342e353420342e35342030203020312d2e3630382d322e313837762d392e333161342e323720342e3237203020302031202e3537322d322e32303820342e323520342e323520302030203120312e3632352d312e3539356c372e3838342d342e353961342e33383220342e33383220302030203120342e33393420306c372e38383420342e353961342e353220342e353220302030203120312e35383920312e36313620342e353420342e3534203020302031202e36303820322e31383776362e3033326c362e38352d342e303635762d362e30333261342e323720342e32372030203020302d2e3537322d322e32303820342e323520342e32352030203020302d312e3632352d312e3539354c34312e3435362032342e353961342e33383220342e3338322030203020302d342e33393420306c2d31342e38363420382e36353561342e323520342e32352030203020302d312e36323520312e35393520342e32373320342e3237332030203020302d2e35373220322e3230387631372e34343161342e323720342e3237203020302030202e35373220322e32303820342e323520342e323520302030203020312e36323520312e3539356c31342e38363420382e36353561342e33383220342e33383220302030203020342e33393420306c31302e3038312d352e39303120362e38352d342e3036352031302e3038312d352e39303161342e33383220342e33383220302030203120342e33393420306c372e38383420342e353961342e353220342e353220302030203120312e35383920312e36313620342e353420342e3534203020302031202e36303820322e31383776392e33313161342e323720342e32372030203020312d2e35373220322e32303820342e323520342e32352030203020312d312e36323520312e3539356c2d372e38383420342e37323161342e33383220342e3338322030203020312d342e33393420306c2d372e3838342d342e353961342e353220342e35322030203020312d312e3538392d312e36313620342e353320342e35332030203020312d2e3630382d322e313837762d362e3033326c2d362e383520342e30363576362e30333261342e323720342e3237203020302030202e35373220322e32303820342e323520342e323520302030203020312e36323520312e3539356c31342e38363420382e36353561342e33383220342e33383220302030203020342e33393420306c31342e3836342d382e36353561342e35343520342e35343520302030203020322e3139382d332e3830335635352e35333861342e323720342e32372030203020302d2e3537322d322e32303820342e323520342e32352030203020302d312e3632352d312e3539356c2d31342e3939332d382e3738367a222066696c6c3d2223666666222f3e3c646566733e3c6c696e6561724772616469656e742069643d2261222078313d2230222079313d2230222078323d22323730222079323d2232373022206772616469656e74556e6974733d227573657253706163654f6e557365223e3c73746f702073746f702d636f6c6f723d2223613863616261222f3e3c73746f70206f66667365743d2231222073746f702d636f6c6f723d2223356434313537222073746f702d6f7061636974793d222e3939222f3e3c2f6c696e6561724772616469656e743e3c2f646566733e3c7465787420783d2233322e352220793d223233312220666f6e742d73697a653d223237222066696c6c3d2223666666222066696c7465723d2275726c282362292220666f6e742d66616d696c793d22556e6369616c20416e74697175612c73616e2d73657269662220666f6e742d7765696768743d22626f6c64223e",
  "linkReferences": {},
  "deployedLinkReferences": {}
}